:020000040800F2
:10000000000002209906000895060008093D000836
:1000100095060008950600089506000800000000F7
:10002000000000000000000000000000950600082D
:100030009506000800000000950600088D3C0008A9
:100040009506000895060008950600089506000824
:100050009506000895060008950600089506000814
:10006000950600089506000895060008A9360008C0
:10007000B536000825240008C1360008CD36000832
:10008000D1EE0008D52B000895060008950600085B
:1000900095060008950600089506000895060008D4
:1000A00095060008950600089506000895060008C4
:1000B000153B0008213B00082D3B0008092C0008D7
:1000C00095060008152C000895060008D9DE0008E2
:1000D000E5DE000805ED000831ED000865ED0008DB
:1000E0009506000895060008000000009506000827
:1000F0009506000895060008950600089506000874
:100100009506000895060008393B0008F1DE000856
:1001100099ED0008CDED0008950600089506000849
:10012000950600089506000815DF000849DF00085D
:1001300005EF0008950600089506000895060008DA
:1001400000000000000000000000000000000000AF
:1001500095060008950600089506000801EE0008BF
:10016000212C0008950600089D3C0008C13C0008B1
:1001700095060008E53C000895060008950600086D
:10018000950600089506000835EE000869EE00089F
:10019000FDDE000809DF0008950600089506000846
:1001A00095060008950600089506000895060008C3
:1001B000C933000895060008950600089506000852
:1001C0009506000895060008D91E0008E51E0008DF
:1001D00095060008F11E000895060008950600081F
:1001E0009506000895060008950600089506000883
:1001F0009506000895060008950600089506000873
:100200009506000895060008950600089506000862
:100210009506000895060008950600089506000852
:1002200095060008950600089506000800000000E5
:1002300095060008950600080000000095060008D5
:100240009506000895060008950600089506000822
:100250009506000895060008950600089506000812
:100260009506000895060008950600089506000802
:1002700095060008950600089DEE000800000000A5
:100280009506000895060008950600080000000085
:080290000000000095060008C3
:1002A00010B5054C237833B9044B13B10448AFF3B0
:1002B00000800123237010BD780700240000000097
:1002C000C44E010808B5034B1BB103490348AFF303
:1002D000008008BD000000007C070024C44E010817
:1002E00001F0FF01102A2BDB10F0070F08D010F8E7
:1002F000013B013A8B422DD010F0070F42B3F6D1EB
:10030000F0B441EA012141EA014122F007047FF003
:1003100000070023F0E80256083C85EA010586EA5A
:10032000010685FA47F5A3FA87F586FA47F6A5FA96
:1003300087F68EB9EED1F0BC01F0FF0102F00702A2
:1003400032B110F8013B013A83EA010313B1F8D14D
:100350000020704701387047002D06BF354603382E
:10036000073815F0010F07D1013015F4807F02BF67
:10037000013015F4C03F0130F0BC0138704700BFB8
:10038000034613F8012B002AFBD1181A01387047D5
:1003900053B94AB9002908BF00281CBF4FF0FF31EC
:1003A0004FF0FF3000F074B9ADF1080C6DE904CEE8
:1003B00000F006F8DDF804E0DDE9022304B0704740
:1003C0002DE9F047089D04468E46002B4DD18A4208
:1003D000944669D9B2FA82F252B101FA02F3C2F13B
:1003E000200120FA01F10CFA02FC41EA030E9440CC
:1003F0004FEA1C48210CBEFBF8F61FFA8CF708FBED
:1004000016E341EA034306FB07F199420AD91CEBC4
:10041000030306F1FF3080F01F81994240F21C81F6
:10042000023E63445B1AA4B2B3FBF8F008FB10333E
:1004300044EA034400FB07F7A7420AD91CEB040473
:1004400000F1FF3380F00A81A74240F20781644443
:10045000023840EA0640E41B00261DB1D4400023C8
:10046000C5E900433146BDE8F0878B4209D9002D2C
:1004700000F0EF800026C5E9000130463146BDE8B6
:10048000F087B3FA83F6002E4AD18B4202D3824220
:1004900000F2F980841A61EB030301209E46002DCF
:1004A000E0D0C5E9004EDDE702B9FFDEB2FA82F224
:1004B000002A40F09280A1EB0C014FEA1C471FFA82
:1004C0008CFE0126200CB1FBF7F307FB131140EA69
:1004D00001410EFB03F0884208D91CEB010103F136
:1004E000FF3802D2884200F2CB804346091AA4B2F8
:1004F000B1FBF7F007FB101144EA01440EFB00FECC
:10050000A64508D91CEB040400F1FF3102D2A64530
:1005100000F2BB800846A4EB0E0440EA03409CE7CF
:10052000C6F12007B34022FA07FC4CEA030C20FA7C
:1005300007F401FA06F31C43F9404FEA1C4900FA9C
:1005400006F3B1FBF9F8200C1FFA8CFE09FB181119
:1005500040EA014108FB0EF0884202FA06F20BD98C
:100560001CEB010108F1FF3A80F08880884240F2DC
:100570008580A8F102086144091AA4B2B1FBF9F020
:1005800009FB101144EA014100FB0EFE8E4508D91B
:100590001CEB010100F1FF346CD28E456AD90238A0
:1005A000614440EA0840A0FB0294A1EB0E01A14285
:1005B000C846A64656D353D05DB1B3EB080261EBF3
:1005C0000E0101FA07F722FA06F3F1401F43C5E9CD
:1005D000007100263146BDE8F087C2F12003D84003
:1005E0000CFA02FC21FA03F3914001434FEA1C4745
:1005F0001FFA8CFEB3FBF7F007FB10360B0C43EA37
:10060000064300FB0EF69E4204FA02F408D91CEBE6
:10061000030300F1FF382FD29E422DD902386344E4
:100620009B1B89B2B3FBF7F607FB163341EA034184
:1006300006FB0EF38B4208D91CEB010106F1FF38D3
:1006400016D28B4214D9023E6144C91A46EA0046CA
:1006500038E72E46284605E70646E3E61846F8E65C
:100660004B45A9D2B9EB020864EB0C0E0138A3E7A5
:100670004646EAE7204694E74046D1E7D0467BE786
:10068000023B614432E7304609E76444023842E7FE
:10069000704700BFFEE700BF0B480C4A904203D0F2
:1006A000121A0B4911F0B0F90A480B4A904203D0D4
:1006B000121A002111F0D0F903F07CFD11F070F94D
:1006C00000F00EF8FEE700BF0000002474070024CD
:1006D000F84E010878070024FC600024704700BF32
:1006E000F0B50021CBB04648002600F053FF0120B2
:1006F00001F02AFB062011F02BF9424A044602239E
:1007000003271288037018466670A670E770A280EF
:1007100011F01EF93C4B062205461B884270ADF8CD
:1007200010303A4B3A4A1B881288ADF81230394BD8
:1007300006701B8807907820ADF81630364B01976D
:1007400009930123069403938DF820301023ADF80C
:100750001420029311F0EBF8064601AA28492F4F06
:1007600000F03EF930463E6000F074F820462C4C14
:1007700011F042F9284611F03FF94FF4C27011F020
:10078000D6F83968054600F045FA2648256001F09C
:10079000D7FD4FF42F711A4800F03CFE206800F09E
:1007A0004BFC2068012100F03DFBB7EEC07A1E49EA
:1007B0000AA853EC172B11F0D3FE0AA801F0B6FAE1
:1007C0002068032100F02EFBB7EEC07A17490AA873
:1007D00053EC172B11F0C4FE0AA801F0A7FA206809
:1007E000592100F01FFBB7EEC07A11490AA853EC5B
:1007F000172B11F0B5FE0AA801F098FAC9E700BF5F
:1008000094070024584801085C4801086048010822
:10081000644801086848010800002040D40700240B
:10082000D8070024AC0700241C4801083048010800
:100830004448010804480023044A05490360436111
:100840000362C36311F06EB8940700240000002413
:10085000DD060008743003F0DDB900BFC36E53F845
:10086000213003EB820292ED000A7047036F03EB25
:10087000810191ED000A70472DE9F041002484B018
:1008800005460E460122234610300094C96801F047
:1008900075FE2346012205F124000094F18901F040
:1008A0006DFE234600940122316905F1380001F004
:1008B00065FE6B68082B5BDC2868324B984254D885
:1008C00000EBC000400011F043F82A680746002AF8
:1008D0001CDD804600242B6E40467169022203EB2A
:1008E000440C08F1120831F8141023F8141013F80E
:1008F000141001349CF801308DF808108DF809307F
:10090000029901F0FBFA2A68A242E4DCA9680029F6
:100910001EDD0024686EA318B169022200EB440EAC
:1009200031F8141003EBC30320F8141010F814C0AE
:1009300007EB43009EF8011001348DF80CC08DF8D0
:100940000D10039901F0DAFAA9682A68A142E1DCE6
:10095000A86E0A4404233946183001F0E3FA3846F9
:1009600004B0BDE8F04111F047B84FF0FF30AAE7FE
:10097000009423460122718A05F14C0001F0FEFD2E
:100980009AE700BFC6711C07F3EE047A0123002228
:1009900020EE270A70B5FDEEC07A84B042F20F76E1
:1009A00000F174058DF80C30044617EE903A019270
:1009B00003226946B34228460092A8BF33460293F9
:1009C00003F0C0F83146284603F036F922460349C1
:1009D000284603F037F904B070BD00BFE90B0008EA
:1009E000F8B5FF254FF60B7700231646078204461D
:1009F00080F8255080F8395080F84D5015685268BD
:100A0000C360C361036343648365C0E90052C0E906
:100A10000533C0E90A33C0E90F33C0E91433C0E934
:100A20001833C0E91A13C0E91C333C4AB368954235
:100A300083604FF00B0380F8243080F8383080F862
:100A40004C3094BF68004FF0FF3010F081FF013D43
:100A50000AD403460B21013DFF22023303F8021C96
:100A6000691C03F8012CF5D1A5682C4B20669D422A
:100A70004AD94FF0FF3010F06BFF013D07460AD412
:100A80000346FF22013D0B21023303F8012C6A1CAF
:100A900003F8021CF5D1204631466766FFF7ECFEED
:100AA00020686FF0604398422CD34FF0FF3010F075
:100AB0004FFF23680746E066002B12DD002500E0AB
:100AC000E76E63686FF060424FF0FF30934238BFCB
:100AD000980010F03DFF236847F825000135AB4230
:100AE000EEDCA0686FF0604300229842E26034BF01
:100AF00080004FF0FF3010F02BFF337F20672BB9C1
:100B00002046F8BD8000D2E76800B4E7204696EDA5
:100B1000080AFFF739FF2046F8BD00BFFCFFFF3F82
:100B2000F8B54B4201F0070701F003060C4603F04D
:100B3000070203F003030546C16058BF57424A420B
:100B400058BF5E424368082B19DCF91C05F13800D8
:100B5000062994BF0021012101F002FE711C05F15C
:100B60002400022994BF0021012101F0F9FD04F0C5
:100B7000010105F11000BDE8F84001F0F1BD0731B9
:100B80004C300E2994BF0021012101F0E9FDDCE782
:100B9000C3684268934270B5044614DA0268002ABA
:100BA00011DD0025E9B2D4E91A0252F825601830A7
:100BB000013506EB830601F0D9FB236886ED000AB8
:100BC000AB42E368EEDCA2689A4200DC70BD2168AB
:100BD000266FA06E194406EB83061830C9B201F0E7
:100BE000C5FB86ED000A70BD10B50446FFF7D0FFC7
:100BF000211D20460EC9914203F10103B8BF1146E1
:100C000093FBF1F201FB1231E160BDE81040FFF708
:100C100087BF00BFC0F88011704700BF01395C2951
:100C200060D8DFE811F0FC005F00F9005F00F6001B
:100C3000F3005F005F00F000ED005F005F00EA007E
:100C40005F005F00E700E4005F005F00E1005F001D
:100C50005F00DE005F00DB00D8005F00D500D2003F
:100C6000CF00CC00C900C600C300C000BD00BA0060
:100C7000B7005F00B400B100AE00AB005F005F00E2
:100C8000A800A5005F00A2009F005F009C009900E3
:100C90005F009600930090008D005F005F008A0067
:100CA0005F005F0087005F005F0084005F005F00FF
:100CB00081005F005F007E005F005F007B005F00DF
:100CC0005F0078005F005F00750072006F006C00CD
:100CD00069006600630060005F005F005F005D0008
:100CE00080ED3D0A704780ED3C0A704780ED3B0A7D
:100CF000704780ED3A0A704780ED390A704780ED01
:100D0000380A704780ED370A704780ED360A704721
:100D100080ED350A704780ED340A704780ED330A64
:100D2000704780ED320A704780ED310A704780EDE0
:100D3000300A704780ED2F0A704780ED2E0A704709
:100D400080ED2D0A704780ED2C0A704780ED2B0A4C
:100D5000704780ED2A0A704780ED290A704780EDC0
:100D6000280A704780ED270A704780ED260A7047F1
:100D700080ED250A704780ED240A704780ED230A34
:100D8000704780ED220A704780ED210A704780EDA0
:100D9000200A704780ED1F0A704780ED1E0A7047D9
:100DA00080ED1D0A704780ED1C0A704780ED1B0A1C
:100DB000704780ED1A0A704780ED190A704780ED80
:100DC000180A704780ED170A704780ED160A7047C1
:100DD00080ED150A704780ED140A704780ED130A04
:100DE000704780ED120A704780ED110A704780ED60
:100DF000100A704780ED0F0A704780ED0E0A7047A9
:100E000080ED0D0A704780ED0C0A704780ED0B0AEB
:100E1000704780ED0A0A704780ED090A704780ED3F
:100E2000080A704701395C295ED8DFE811F0FF003D
:100E30005D00FC005D00F900F6005D005D00F30060
:100E4000F0005D005D00ED005D005D00EA00E70080
:100E50005D005D00E4005D005D00E1005D00DE001E
:100E6000DB005D00D800D500D200CF00CC00C90067
:100E7000C600C300C000BD00BA005D00B700B400EA
:100E8000B100AE005D005D00AB00A8005D00A500F4
:100E9000A2005D009F009C005D00990096009300F9
:100EA00090005D005D008D005D005D008A005D00CA
:100EB0005D0087005D005D0084005D005D008100D5
:100EC0005D005D007E005D005D007B005D005D00FB
:100ED0007800750072006F006C00690066006300A6
:100EE0005D005D005D0060009FED520A704790ED6F
:100EF0003D0A704790ED3C0A704790ED3B0A704701
:100F000090ED3A0A704790ED390A704790ED380A33
:100F1000704790ED370A704790ED360A704790EDB4
:100F2000350A704790ED340A704790ED330A7047E8
:100F300090ED320A704790ED310A704790ED300A1B
:100F4000704790ED2F0A704790ED2E0A704790ED94
:100F50002D0A704790ED2C0A704790ED2B0A7047D0
:100F600090ED2A0A704790ED290A704790ED280A03
:100F7000704790ED270A704790ED260A704790ED74
:100F8000250A704790ED240A704790ED230A7047B8
:100F900090ED220A704790ED210A704790ED200AEB
:100FA000704790ED1F0A704790ED1E0A704790ED54
:100FB0001D0A704790ED1C0A704790ED1B0A7047A0
:100FC00090ED1A0A704790ED190A704790ED180AD3
:100FD000704790ED170A704790ED160A704790ED34
:100FE000150A704790ED140A704790ED130A704788
:100FF00090ED120A704790ED110A704790ED100ABB
:10100000704790ED0F0A704790ED0E0A704790ED13
:101010000D0A704790ED0C0A704790ED0B0A70476F
:1010200090ED0A0A704790ED090A704790ED080AA2
:10103000704700BF00000000002210B511460446B2
:10104000D0F88001FFF70AFC012120460A46FFF78D
:10105000E5FDD4F880010021FFF700FC20460321C4
:101060000222FFF7DBFDD4F880010021FFF7F6FB39
:10107000204605210322FFF7D1FDD4F8800100218D
:10108000FFF7ECFB204606210422FFF7C7FDD4F84A
:1010900080010021FFF7E2FB204609210522FFF72E
:1010A000BDFDD4F880010021FFF7D8FB20460A21BE
:1010B0000622FFF7B3FDD4F880010021FFF7CEFB35
:1010C00020460D210722FFF7A9FDD4F88001002159
:1010D000FFF7C4FB204610210822FFF79FFDD4F83C
:1010E00080010021FFF7BAFB204611210922FFF7FA
:1010F00095FDD4F880010021FFF7B0FB20461421B4
:101100000A22FFF78BFDD4F880010021FFF7A6FB30
:10111000204617210B22FFF781FDD4F88001002122
:10112000FFF79CFB204619210C22FFF777FDD4F82E
:1011300080010021FFF792FB20461A210D22FFF7C4
:101140006DFDD4F880010021FFF788FB20461C21AB
:101150000E22FFF763FDD4F880010021FFF77EFB2C
:1011600020461D210F22FFF759FDD4F880010021F0
:10117000FFF774FB20461E210022FFF74FFDD4F835
:1011800080010121FFF76AFB012220461F21FFF7A2
:1011900045FD1146D4F88001FFF760FB2046202171
:1011A0000222FFF73BFDD4F880010121FFF756FB37
:1011B000204621210322FFF731FDD4F880010121CF
:1011C000FFF74CFB204622210422FFF727FDD4F82D
:1011D00080010121FFF742FB204623210522FFF772
:1011E0001DFDD4F880010121FFF738FB20462421A2
:1011F0000622FFF713FDD4F880010121FFF72EFB33
:10120000204625210722FFF709FDD4F8800101219E
:10121000FFF724FB204626210822FFF7FFFCD4F825
:1012200080010121FFF71AFB204628210922FFF740
:10123000F5FCD4F880010121FFF710FB204629219D
:101240000A22FFF7EBFCD4F880010121FFF706FB2F
:1012500020462A210B22FFF7E1FCD4F8800101216E
:10126000FFF7FCFA20462B210C22FFF7D7FCD4F81D
:1012700080010121FFF7F2FA20462E210D22FFF70F
:10128000CDFCD4F880010121FFF7E8FA20462F2198
:101290000E22FFF7C3FCD4F880010121FFF7DEFA2C
:1012A000204631210F22FFF7B9FCD4F8800101213B
:1012B000FFF7D4FA204632210022FFF7AFFCD4F822
:1012C00080010221FFF7CAFA204634210122FFF7EC
:1012D000A5FCD4F880010221FFF7C0FA02222046C3
:1012E0003521FFF79BFC1146D4F88001FFF7B6FAD1
:1012F000204637210322FFF791FCD4F88001022118
:10130000FFF7ACFA204638210422FFF787FCD4F817
:1013100080010221FFF7A2FA204639210522FFF7BA
:101320007DFCD4F880010221FFF798FA20463A218B
:101330000622FFF773FCD4F880010221FFF78EFA32
:1013400020463D210722FFF769FCD4F880010221E5
:10135000FFF784FA204640210822FFF75FFCD4F80B
:1013600080010221FFF77AFA204643210922FFF784
:1013700055FCD4F880010221FFF770FA204646217F
:101380000A22FFF74BFCD4F880010221FFF766FA2E
:10139000204653210B22FFF741FCD4F880010221A3
:1013A000FFF75CFA204654210C22FFF737FCD4F8F3
:1013B00080010221FFF752FA204655210D22FFF746
:1013C0002DFCD4F880010221FFF748FA204656216F
:1013D0000E22FFF723FCD4F880010221FFF73EFA2A
:1013E000204657210F22FFF719FCD4F88001022173
:1013F000FFF734FA20465821FFF710FCD4F880019B
:101400000021FFF733FA20465921BDE81040FFF7CD
:1014100005BC00BF084602F0E7BC00BF10B540F2B3
:1014200003338EB000244FF60B7240F20341ADF847
:10143000083009A80123ADF81020ADF82420224679
:10144000ADF80C100094029907940C94CDE9054472
:10145000CDE90A4401F092F804A801232246039939
:10146000009401F08BF809A801F06EF910B9012081
:101470000EB010BD04A801F067F9A0420CBF022015
:1014800020460EB010BD00BF2DE9F04103239AB0F5
:10149000012700240646CDE914373B4BCDE9104324
:1014A00040F20453CDE91647ADF84830FFF7B6FFD8
:1014B000B842054625D0022845D040F60132334BCC
:1014C0000DF12C081894ADF82C200B981997CDF835
:1014D0004A3000F0E3F810A906F13C0002F0FCF8F5
:1014E000302003224FF07E5341460D930E93CDE9F9
:1014F0000B02F26B06F1140000F04CFB1AB0BDE8D1
:10150000F0811023214A06A906908DF828300DF1AC
:101510002C081F4BCDF84A2007930294CDE91804FC
:10152000CDE9080402A801F081FB0823029A03A96F
:101530004046ADF80C508DF80E40049505930B9481
:1015400000F0ECF8C7E700200121104B0DF12C084A
:101550003A460094CDF84A304FF60B730C94ADF830
:101560002C302346CDE9180140F601314046ADF854
:1015700018100699CDE90D4401F000F821464046C7
:1015800001F0EEF8A7E700BF040204040406040318
:101590000704010B2DE9F04704462DED028B82B0C4
:1015A00000294DD0012140F2011200230091ADF835
:1015B00004208DF80630364A0127364B04F1040921
:1015C000354904F12908626040F20272A36040F6D6
:1015D0000663E16004F1250AA4F82520A4F8293067
:1015E000278284F8277084F82B7002F099FD054655
:1015F00002F0FCFB6946064650BB4DB304F13000D7
:101600008DF8067002F014FD072D3CD104F114058D
:101610002046FFF739FF284600F0F8FA2846B0EEDA
:10162000408A00F0EFFAD0ED007AF8EE677A88EEA3
:10163000277A84ED0E7A02B0BDEC028BBDE8F0870C
:1016400040F2011300918DF80610ADF80430B2E7B6
:1016500004F1300002F0ECFC072D11D04946204681
:1016600001F02EFD0EB9002DD0D1504601F082F8C8
:10167000404601F07FF804F1120000F079F9C5E767
:10168000002EF2D1C2E74946204601F019FDBDE720
:101690000508050905070506050A060610B584B004
:1016A00003460124ADF8040003A8ADF80C30ADF8F2
:1016B0000E4001F05FF8214603A801F037F92046FB
:1016C00002F092FB002103A801F030F9204602F05D
:1016D0008BFB214603A801F029F904B010BD00BF1F
:1016E00010B5C2F3002384B00C46017C8DF80D20A8
:1016F00043EA4402FA2402238DF80C2003AA009442
:1017000001F02AFB18B10124204604B010BD0446A4
:101710000A2002F069FB204604B010BD034670B5F4
:1017200043F8042B044684B007C983E80700A37973
:1017300083B91A210B461E22FA2523742046ADF8E0
:101740000C20022303AA009501F006FB28B101201A
:1017500004B070BD1B210B46EDE70A2002F044FBEC
:101760004FF4B85200950223ADF80C20204603AA8E
:10177000217C01F0F1FA0028E9D10A2002F034FBC3
:1017800041F2027200950223ADF80C20204603AA14
:10179000217C01F0E1FA0028D9D10A2002F024FBD3
:1017A000042200950223ADF80C20204603AA217CD8
:1017B00001F0D2FA0028CAD10A2002F015FB062255
:1017C00000950223ADF80C20204603AA217C01F0ED
:1017D000C3FA0028BBD10A2002F006FB41F208221E
:1017E00000950223ADF80C20204603AA217C01F0CD
:1017F000B3FA0028ABD10A20064602F0F5FA0095AC
:10180000022303AA217C2046ADF80C6001F0A4FA63
:1018100000289CD1304602F0E7FA009522790C238B
:101820002046002A8DF80C3003AA4FF0020314BFA3
:10183000622142218DF80D10217C01F08DFA0028E3
:1018400085D1304602F0D0FA2279D4E902310B4337
:10185000DBB20AB943F0400362790AB143F02003D6
:101860000E22FA258DF80D302046009502238DF8C2
:101870000C2003AA217C01F06FFA00287FF467AFE7
:101880000A2002F0B1FA102200950223ADF80C20D4
:10189000204603AA217C01F05FFA00287FF457AFAD
:1018A0000A2002F0A1FA122100950223ADF80C10D3
:1018B00003AA217C204601F04FFA00287FF447AFAD
:1018C0000A2002F091FA012209212046FFF708FFC1
:1018D000003818BF01203BE7F0B5102387B0234C38
:1018E000012200250126002702A920460195CDE905
:1018F00002234FF48052CDE9046709F0FBFC642019
:1019000003F04CFA02A94FF480522046CDE9046757
:1019100002261027CDE9026709F0ECFC0322102310
:1019200002A92046CDE9022300230422CDE90423A5
:101930004FF4805209F0DEFC40F23223042202A967
:10194000019310232046CDE90223019A0123059239
:101950004FF48052049309F0CDFC40F60601204676
:1019600009F0E8FC284607B0F0BD00BFE4070024FA
:101970001C4B00221C494FF0400C30B5054689B085
:101980000220596007219A601A620124DA620A2251
:101990004FF4006EDC6006922022CDE900010420A5
:1019A0000821CDE9020103201021CDE9040108201E
:1019B0006946C3E904024FF4C072181DC3E906C2A8
:1019C0004FF48052C3E909E209F06AFC38B92846AD
:1019D000FFF782FF003818BF012009B030BD204654
:1019E00009B030BDE007002440410052614A0021A7
:1019F000D0B513688EB00A91002B40F0B9805E4BD1
:101A000001214FF683700C2411600221D3F8D420F9
:101A10000026032742F48052C3F8D420D3F8D42000
:101A200002F480520092009AD3F8E02042F01002B3
:101A3000C3F8E020D3F8E02002F010020192019AEE
:101A4000D3F8E02042F04002C3F8E020D3F8E020D1
:101A500002F040020292029AD3F8E02042F008021B
:101A6000C3F8E020D3F8E02002F008020392039AC2
:101A7000D3F8E02042F48072C3F8E020D3F8E020ED
:101A800002F480720492049AD3F8E02042F08002BB
:101A9000C3F8E020D3F8E02002F080020592059A16
:101AA000D3F8E02042F02002C3F8E020D3F8E02091
:101AB00002F020020692069AD3F8E02042F00402D7
:101AC000C3F8E020D3F8E0300C9403F0040307934C
:101AD0000323079A0B93CDE9080108A9274804F0CE
:101AE000E3FF48F23712022308A925480C94CDE9F8
:101AF0000823CDE90A6704F0D7FF4CF203720223F2
:101B000008A920480C94CDE90823CDE90A6704F020
:101B1000CBFF40F2FF62022308A91B480C94CDE9D9
:101B20000823CDE90A6704F0BFFF4FF60C720223C9
:101B300008A916480C94CDE90823CDE90A6704F0FA
:101B4000B3FF4FF63F02022308A911480C94CDE9D8
:101B50000823CDE90A6704F0A7FF2022022308A981
:101B60000A480C94CDE90A67CDE9082304F09CFFEC
:101B70000EB0D0BDDC07002400440258001002580B
:101B800000180258000C025800200258001C02588D
:101B90000014025830B5184C154685B0046004F1A5
:101BA000080EEC460FC98EE80F00D4ED047AF5EE6E
:101BB000C07A8CE80F00F1EE10FA1ADDB7EE006A79
:101BC00094ED057A27EE277AC6EE276A84ED0D7A22
:101BD000C4ED0C6A6DB1204640F8185F01F074FE48
:101BE000064903690020064A2162A262E36005B04B
:101BF00030BD012005B030BD1808002400200030A1
:101C00000000003000680830704700BF00681830DE
:101C100001F05CBE10B4074B4FF07E51302400221F
:101C2000032019619C60D8605DF8044B5961C3E9D9
:101C30000622704718080024704700BFF8B5134FFC
:101C40003C687F2C07D98023114A42F224411C466C
:101C50003B60A2F87E100F4D2B68012B0AD90C4E69
:101C60000D4D22463146284600F02CF90028F8D1C7
:101C70003860F8BD22460649074800F023F90028DD
:101C8000F7D12B68386001332B60F8BD540800246D
:101C90005808002450080024D808002430B4154CFB
:101CA0002168F1B14B1E144DE81810F801298C463B
:101CB00019460A2A01D00D2A02D14BB1013BF4E7A3
:101CC0000CF102037F2B10D98023236030BC7047B6
:101CD0000122022323600D200A236854AB5430BC38
:101CE000704701220223044DF4E70CF10102614622
:101CF000F0E700BF540800245808002410B5094C30
:101D000002460B46084821680844C1F1800110F0E2
:101D100073FC236818442060FFF7C0FFFFF78EFFB5
:101D200010BD00BF54080024580800240FB400B5AB
:101D300083B004A951F8040B0191FFF7DFFF03B052
:101D40005DF804EB04B0704710B5044600210A4862
:101D500000F032F8002C094B14BF02220022084880
:101D60001A60FFF7E3FF0748FFF7E0FF0A20BDE82E
:101D7000104002F039B800BFD808002450080024F1
:101D80006C4801087C480108064A0749074808B51D
:101D90000FF0C8FD034A04490548BDE808400FF0AC
:101DA000C1BD00BF00000024391C0008D808002471
:101DB000DC080024704700BF012910B506D00229B5
:101DC00015D051B1BDE8104006F050BD0A46344868
:101DD00034490AF0C5FFE8B1FEE7334B0A46334CFD
:101DE000334934481C600AF0BBFF68B1FEE70122AA
:101DF0002C492B480AF0B4FF00B1FEE72E492848D1
:101E00000AF0D0FFC0B1FEE72B492A480AF0CAFF0A
:101E100060B1FEE7284922480AF0C4FF00B1FEE79E
:101E200026491F480AF04CFF08B3FEE72449214821
:101E30000AF046FFA8B1FEE7204919480AF040FF22
:101E400000B1FEE716480AF0C3FF024640B9164B40
:101E5000164C174917481C600AF082FF68B1FEE76C
:101E6000FEE714480AF0B4FF0028ABD0FEE70C48A8
:101E70000AF0AEFF0028A5D0FEE70F490D480AF092
:101E800091FF00B1FEE70E490A480AF019FF00B1C0
:101E9000FEE708480AF09CFF002893D0FEE700BF49
:101EA0007C0B0024A0000024180E0024B51D00089F
:101EB00084000024E00800240801002464000024B9
:101EC00054000024084691B208B502F063FA0038C5
:101ED00018BF012008BD00BF014805F0A5BF00BF25
:101EE000703A0024014805F09FBF00BF703A0024FB
:101EF000014805F099BF00BF703A002400B583B0D7
:101F00004FF0000E4FF0030C4274ADF80410BDF812
:101F1000043080F810E0A0F802C0038003B05DF840
:101F200004FB00BF2DE9F04FDFF81C8300258DB0C6
:101F3000C04C037008F140034260074601920E4610
:101F4000202229464046C4F86831C4F86481CDE9AE
:101F50000255CDE90455CDE90655CDE90855CDE941
:101F60000A550FF079FD2022294604F5A170C4F826
:101F70003151C4F83551C4F83951C4F83D510FF00E
:101F80006BFD019B84F8485284F830317A68002A4E
:101F90006AD02B4604F59871454606F1100A9E4614
:101FA000F01856F803B0E2180EF1010ED0F80CC08C
:101FB000D0F80490D0F8088044F803B0C2F80CC000
:101FC0004FF0000CC2F80490C2F80880008A25F88F
:101FD00002CB10821AF8032001F8012F002A70D0DA
:101FE0007A684FF001001233724584F84802D7D85E
:101FF0004FF4802290489DF8043008214FF00008EB
:102000004FF00009C4F884310023C4E95B020122C7
:10201000C4F8743184F88031C4E95E2194F8481220
:10202000C4E96489A9B3C4F89821002284F88131F5
:1020300084F888313B78C4E96722002B38D001222C
:1020400000200121013B84F8A421C4E96C01082B84
:1020500030D8DFE813F0BD00C200C700CC00D100CB
:10206000D600DB00E100E8009DF804300121C4F84F
:102070007421C4F884314FF4802384F880216E4A9F
:10208000C4E95B2308230022C4E95E130023C4E9EA
:1020900064230123002284F88131002384F88831ED
:1020A0000323C4F898313B78C4E96722002BC6D1DA
:1020B00084F8A431614803F0A9FA034638B1FFBEA1
:1020C000FEE77A68123372453FF66AAF90E702A9DD
:1020D0005A48029303F0F8FB8246002876D1042286
:1020E00040F2FF710A90CDE9081294F83021002ADD
:1020F00000F0F3804FF006080AEBCA034FEACA0962
:1021000004EB43035B7C072B07D8DFE803F0595C43
:102110005653504D4A04072307930FFA8AF6D144C9
:1021200006EBC60604EB490904EB46077500384682
:1021300000F020FB99F81030042B00F3AA80022B4A
:1021400000F3BD8000F0B98004EB0A03002283F89D
:10215000202114F81630002B78D0022B00F08A8052
:10216000012B40F0B2807B78012B00F0B080002B77
:10217000334B18BF002305A93048CDE9053802F0DC
:1021800071FE002840F0AC800AF1010A94F8303169
:102190005FFA8AFA534540F2A0802A4B53F82A800E
:1021A000AAE706230793B8E705230793B5E70423B7
:1021B0000793B2E703230793AFE702230793ACE744
:1021C00000230793A9E701230793A6E7FFBEFEE7D5
:1021D00003224023C4E96A236CE707226023C4E991
:1021E0006A2367E70F228023C4E96A2362E71F227C
:1021F000A023C4E96A235DE73F22C023C4E96A2320
:1022000058E77F22E023C4E96A2353E7FF224FF413
:102210008073C4E96A234DE740F2FF124FF49073D4
:10222000C4E96A2346E740F2FF324FF4A073C4E9E1
:102230006A233FE7200E0024002002408C0F002478
:102240000002B0258C480108004000307B78062B46
:1022500037D0072B3DD0022B4AD0032B4AD0002B7E
:102260004CD0012B48D0042B4AD0052B254B18BF4E
:10227000002380E77B78042B25D0052B2BD08BB354
:10228000012B31D0022B31D0032B1F4B18BF002361
:1022900071E70323043504EB0A0B4FF000092544D2
:1022A0008BF82031284609F1010900F063FA9BF808
:1022B000203104354B45F5DC4BE70123EAE70223E7
:1022C000E8E7124B57E7124B55E7002353E7114B52
:1022D00051E7114B4FE7114B4DE70DB0BDE8F08FC3
:1022E000FFBEFEE70E4B46E70E4B44E70E4B42E7C0
:1022F0000E4B40E70E4B3EE70E4B3CE70E4B3AE7EA
:102300000E4B38E70000B84F002090360800900CC4
:102310001000C0102000F0148000501D000180212A
:102320000004002A0008302E001060320040C03A3D
:102330000080F03E00005247000021430000844B23
:1023400038B5094C40F2FF724FF0011104F5B67533
:10235000284603F067FA94F83021D4F8641128462F
:10236000BDE8384002F0D2BF200E0024064B0F29F2
:10237000D3F8643198BF03EB41031B8800EE103A99
:10238000BBEEC80A704700BF200E0024214B026834
:102390009A4200D07047204A00232048D2F8D81033
:1023A00030B51F4C41F0200183B0C4F8D0010920A2
:1023B00004F5E875C4E975034FF48060C2F8D810DD
:1023C000D2F8D8204FF40061C4E9773094F848027D
:1023D00002F02002C4F8E4114FF400519842019237
:1023E0002846C4F8E811C4E97C33019B14BF0023DC
:1023F0004FF48073C4F8EC3103F08CFC08B1FFBEDD
:10240000FEE704F5B673C4F8B851C4F8083203B057
:1024100030BD00BF0020024000440258400002408E
:10242000200E0024014803F0EDBF00BFF00F002490
:1024300002682DE9F84F4B4B9A4201D0BDE8F88F66
:10244000494D95F84832002BF8D095F83031002BE3
:1024500077D0002405F10C0905F5A17605F59877EC
:10246000A04613E003F0010117F811BCA9F1080020
:1024700000F05CFABBF1010F25D895F8303101343A
:1024800009F112090236A2B293422BD917F8012F93
:10249000002AF4D0D5F864310021327833F81400E2
:1024A000D5F8683103EB041323F8120033880133A5
:1024B0009BB233805FFA83FA3A789A42D2D88A463E
:1024C000A6F80080D0E7CAF34001A9F1040000F0AB
:1024D0002DFABBF1020FCAF38001CED0484600F0BE
:1024E00025FACAE7002395F84802204909229842B4
:1024F000C5F8D8314FF48060C5F8D011C5F8D421A3
:102500004FF400614FF40052C5F8DC3108BF4FF4BE
:102510008073C5F8E821C5E9780100221448C5E9AF
:102520007B32C5F8F42103F0F5FB08B1FFBEFEE7EE
:1025300095F83021D5F864110E48BDE8F84F02F047
:10254000E5BE0A4909224FF48060C5F8D831C5E9D3
:1025500074124FF400614FF40052C5E97730C5E9B9
:102560007912DAE700200240200E002440000240E9
:10257000F00F00248C0F0024704700BF10B592B0FC
:10258000ADF804100180C9B2149C0B29C460C0E9E5
:1025900001233FD090F801C0BCF10F0F3AD8022AB6
:1025A0003FD0032A02D0012A00D000220E92012B34
:1025B00002D0022B18BF0023022C0F932CD0032C27
:1025C0002AD0012C28D000230A29109327D85C4A4E
:1025D00002EB812202610A2914D8DFE801F0A395F9
:1025E00087796B5D4F4133250600564BD3F8E010D9
:1025F00041F48061C3F8E010D3F8E03003F4806365
:102600000C930C9B01230DA9104603FA0CF30D93B8
:1026100004F04AFA12B010BD0A291094D7D900224A
:10262000D8E711220E92C2E7464BD3F8E01041F4EE
:102630000071C3F8E010D3F8E03003F400730B939B
:102640000B9BDFE73F4BD3F8E01041F48071C3F8F8
:10265000E010D3F8E03003F480730A930A9BD1E7CB
:10266000384BD3F8E01041F08001C3F8E010D3F804
:10267000E03003F080030993099BC3E7314BD3F8A3
:10268000E01041F04001C3F8E010D3F8E03003F06F
:1026900040030893089BB5E72A4BD3F8E01041F0BC
:1026A0002001C3F8E010D3F8E03003F020030793D3
:1026B000079BA7E7234BD3F8E01041F01001C3F8C4
:1026C000E010D3F8E03003F010030693069B99E77F
:1026D0001C4BD3F8E01041F00801C3F8E010D3F828
:1026E000E03003F008030593059B8BE7154BD3F807
:1026F000E01041F00401C3F8E010D3F8E03003F03B
:1027000004030493049B7DE70E4BD3F8E01041F0E3
:102710000201C3F8E010D3F8E03003F002030393A2
:10272000039B6FE7074BD3F8E01041F00101C3F8BA
:10273000E010D3F8E03003F001030293029B61E75D
:10274000000002580044025808B50121437800698E
:10275000994089B204F0B0FB003818BF012008BDD1
:1027600001230A464178006903FA01F189B204F0B5
:10277000A9BB00BF8378022B30B504468FB037D099
:10278000032B33D0012B31D000230A93E378012BA4
:102790002AD0022B28D000230B93002320460C9331
:1027A00002F0DAF90546204602F0DEF923780990B6
:1027B000082B13D8DFE803F01F3245586B7E91A435
:1027C0000500594BD3F8E02042F48072C3F8E020B2
:1027D000D3F8E03003F480730893089B09A92846D6
:1027E00004F062F90FB030BD0B93D6E70A93CDE742
:1027F00011230A93CAE74C4B09A92846D3F8E020D5
:1028000042F00102C3F8E020D3F8E03003F0010306
:102810000093009B04F048F90FB030BD424B09A96A
:102820002846D3F8E02042F00202C3F8E020D3F8B3
:10283000E03003F002030193019B04F035F90FB07F
:1028400030BD394B09A92846D3F8E02042F00402F4
:10285000C3F8E020D3F8E03003F004030293029BB6
:1028600004F022F90FB030BD2F4B09A92846D3F848
:10287000E02042F00802C3F8E020D3F8E03003F093
:1028800008030393039B04F00FF90FB030BD264BF0
:1028900009A92846D3F8E02042F01002C3F8E0204E
:1028A000D3F8E03003F010030493049B04F0FCF829
:1028B0000FB030BD1C4B09A92846D3F8E02042F0E8
:1028C0002002C3F8E020D3F8E03003F020030593A2
:1028D000059B04F0E9F80FB030BD134B09A9284659
:1028E000D3F8E02042F04002C3F8E020D3F8E03013
:1028F00003F040030693069B04F0D6F80FB030BDFA
:10290000094B09A92846D3F8E02042F08002C3F819
:10291000E020D3F8E03003F080030793079B04F036
:10292000C3F80FB030BD00BF0044025870B5064672
:102930000D4602F011F90446304602F015F92A1E40
:102940000146204618BF0122BDE8704004F0BABA23
:102950000023122270B586B0CDE9022304930368E8
:10296000032B01D804230593061D841D304602F075
:10297000F3F80546304602F0F7F8034601A9284669
:10298000019304F091F8204602F0E6F80346204651
:102990001C4602F0E9F801A903462046019304F021
:1029A00083F806B070BD00BF634A0368934210B558
:1029B0008CB028D0614A934258D0614A934200F0CB
:1029C0009480604A934201D00CB010BD5E4C5F48C9
:1029D000D4F8E03043F00203C4F8E030D4F8E0303B
:1029E00003F002030A930A9BFFF7B2FFD4F8F43016
:1029F00043F08003C4F8F430D4F8F43003F08003DB
:102A00000B930B9BE0E7504C5148D4F8E03043F077
:102A10000203C4F8E030D4F8E03003F0020301937D
:102A2000019BFFF795FFD4F8E83000221F2043F404
:102A300000131146C4F8E830D4F8E83003F400136A
:102A40000293029BD4F8D83043F00103C4F8D83085
:102A5000D4F8D83003F001030393039B02F0A8FFDE
:102A60001F200CB0BDE8104002F0E0BF364C3948E2
:102A7000D4F8E03043F08003C4F8E030D4F8E0301C
:102A800003F080030493049BD4F8E03043F0020386
:102A9000C4F8E030D4F8E03003F002030593059B5E
:102AA000FFF756FFD4F8E8300022212043F48003DA
:102AB0001146C4F8E830D4F8E83003F480030693F4
:102AC000069BD4F8D83043F00103C4F8D830D4F8CA
:102AD000D83003F001030793079B02F069FF212020
:102AE0000CB0BDE8104002F0A1BF1B48FFF730FF5B
:102AF000154B00224820D3F8E840114644F4000466
:102B0000C3F8E840D3F8E84004F400040894089CB3
:102B1000D3F8D84044F00104C3F8D840D3F8D830F3
:102B200003F001030993099B02F042FF48200CB017
:102B3000BDE8104002F07ABF005400400058004049
:102B4000005C0040001C005800440258F8120024A9
:102B50007010002448110024201200242DE9F043B5
:102B60001A4B87B000254FF010099E46EC46184BD3
:102B7000FF22E04667461A700EF118060EF1300487
:102B8000CDE90055CDE90255ADF80090BCE80F0045
:102B9000CDE90455AEE80F009CE803000095ADF8C0
:102BA00000908EE80300B8E80F000FC69CE8030011
:102BB0000095ADF8009086E803000FCF0FC49CE8A5
:102BC000030084E8030007B0BDE8F083040000249C
:102BD0006C10002410B5EFF3108472B6084B1A780D
:102BE000120602D504B962B610BD1B78D82205487A
:102BF0005BB202FB0300143003F004FCF2E700BFF9
:102C00006C10002470100024014804F0F3BF00BFD2
:102C1000FC100024014804F0EDBF00BFD4110024D3
:102C2000014804F0E7BF00BFAC1200242DE9F043D7
:102C30000F68D8243F4D85B007FB04F4032F05EB44
:102C40000403036040DCCB680E46012B3CD84DD01A
:102C50004FF0D808B646DFF8FC9008FB0758BEE8EE
:102C60000F00C446ACE80F00DEF800300DF1100E86
:102C7000CCF80030D8F808C099E80F000EE90F0032
:102C80000EEB8703BCF1010F53F8103CC8F88C30F1
:102C900031D0BCF1020F42D0BCF1000F35D0317CF5
:102CA0008C34D823002201202C4403FB0753490015
:102CB000C3E92602C3F894102046C3E92822C3E9D9
:102CC0002A2204F089FD18B1012005B0BDE8F08387
:102CD0000146204604F09AFF0028F5D1014620461F
:102CE00004F0BEFF003818BF0120EEE70B7C103B5C
:102CF000672BADD9E8E701F011FA0F4B98420CBFF2
:102D00000E4B0F4BC8F89030C9E701F007FA0A4B99
:102D100098420CBF0B4B0C4BC8F89030BFE701F04A
:102D2000FDF9054B98420CBF084B094BC8F8903091
:102D3000B5E700BF70100024000E27072D0FB0303C
:102D40003211D0205F4390608A62E030200BA010E7
:102D50001A098010E84701082DE9F041D0F80080F9
:102D600082B00D4617461E4608F18C04204604F03A
:102D700049FF2028FAD1D8F80C3073B96D002046ED
:102D8000089C33463A46A9B2009404F07BFD003813
:102D900018BF012002B0BDE8F081089B32463946D9
:102DA000204604F043FEF2E7044B10221A7483F825
:102DB000E82083F8C02183F898227047701000241F
:102DC00030B5002395B04FF48071062204460B9372
:102DD00006921393CDE90C13CDE90E33CDE91133EF
:102DE00001F09EF907282BD004F1100541F288323A
:102DF00006A9284605F086FE28B10123184684F866
:102E00005C3015B030BD0222022306A92846CDE968
:102E1000002310220123CDE9022300224FF4800376
:102E2000CDE9042305224FF0807306926A460F9382
:102E300041F2883305F0D2FF0028DED115B030BD55
:102E40000323012084F85C3015B030BD0000000081
:102E500070B50023A4B04FF080724FF48075044623
:102E6000ADF806300D93CDE910320122CDE90E53B5
:102E7000CDE91223CDE91433002943D0F02300F12A
:102E8000100508AEADF80630C02341F28832314655
:102E90002846089305F036FE28B10123184684F829
:102EA0005C3024B070BD41F288320DF10601284635
:102EB00005F092FE03460028EFD105224FF4807101
:102EC0001E93284616924FF080721B9321931F92F7
:102ED00002AA9FED1F7BCDE91C13CDE922338DEDB6
:102EE000027B9FED1D7B41F2883316A98DED047B9B
:102EF0009FED1B7B8DED067B05F070FF0028CCD18C
:102F000024B070BD00F1100508AE612341F2883293
:102F100031462846089305F0F5FD0028BDD141F261
:102F200088320DF10601284605F0D4FE0028B4D100
:102F3000BDF80630204623F0780343F04003ADF897
:102F40000630FFF73DFF00289ED0A6E7AFF30080D4
:102F5000000000000100000010000000010000005F
:102F600000000000000040002DE9F04F00234FF466
:102F7000807501264FF0807804462DED028BABB0B2
:102F80008DF8073013932193299314950E96CDF85D
:102F90005C80CDE91533CDE91863CDE91A33CDE96D
:102FA0002253CDE92433CDE9273306231C9301F0C6
:102FB000B7F8072808D004F1100741F288321CA99D
:102FC000384605F09FFD40B10123184684F85C3077
:102FD0002BB0BDEC028BBDE8F08F4FF0020A4FF032
:102FE000020B4FF0050941F2883308AA1CA93846A4
:102FF000CDF89480CDF870909FED2D8BCDE908AB86
:103000004FF0000A4FF4800B8DED0A8BCDE90CAB2D
:1030100005F0E4FE0028D7D141F2883238460EA9E7
:1030200005F070FD0028CFD1402341F288320DF128
:10303000070138468DF8073005F0CEFD0028C3D1D2
:1030400041F288330EA902AA3846CDF83890CDF85F
:103050005C809FED197B8DED048BCDE906AB8DED8A
:10306000027B05F0BBFE03460028ADD1CDF8709081
:103070004FF00109CDF894804FF00008219308AA81
:1030800029931CA938462295CDE92333CDE927336E
:1030900041F288338DED0A8BCDE90CABCDE908897F
:1030A00005F09CFE002893D0304684F85C608FE7E2
:1030B000100000000100000040000000400000007F
:1030C0002DE9F043624CA3B00D46046001F028F8EE
:1030D000072800F0A980286823466968AA6807C302
:1030E0001E46AB8926F8043B3046257B677B05F0FE
:1030F000EBFCE0B9574B012D4FF00108E061236173
:1031000014BF4FF480134FF40003C4E9058893FA09
:10311000A3F3B3FA83F34FF48079013BC4F824900E
:10312000C4E90B003046236205F062FC38B101228D
:10313000134684F85C20184623B0BDE8F08366236C
:103140000B90139041F2883206A90693CDE90C90BA
:10315000CDE90E00CDE91100304605F0D3FC002882
:10316000E5D1992341F2883206A93046069305F04D
:10317000C9FC0028DBD105231C9019906A461493E2
:103180004FF08073219014A91D9341F288339FED75
:103190002A7BCDE91A90CDE91F008DED007B9FEDD4
:1031A000287B30468DED027B9FED277B8DED047BE8
:1031B00005F014FE0028BAD129462046FFF748FE44
:1031C0000028B4D12046FFF7CFFE03460028AED139
:1031D000002FB0D1189330460027002606AA14A964
:1031E000CDF86890CDE91F33EB2314934FF440637F
:1031F0001B934FF4005317934FF440431C93A023A9
:103200001693062319934FF0805321934FF0407388
:10321000CDE906671D9305F059FE034600288AD0C4
:10322000434684F85C8086E701230322184684F82D
:103230005C2023B0BDE8F083000000000100000026
:10324000100000000100000000000000000040002D
:10325000D0130024005000522DE9F04F8FB0414BA5
:103260000024026800AF9A427C63C7E90944C7E9B9
:103270000B4403D03C37BD46BDE8F08F3A4B40F6D7
:1032800009213A48EB46D3F8D42007F11C0607F190
:10329000220A4FF0020942F480424FF00308C3F8BB
:1032A000D420D3F8D42002F48042BA60BA68D3F8AC
:1032B000E02042F04002C3F8E020D3F8E02002F022
:1032C0004002FA60FA68D3F8E02042F02002C3F826
:1032D000E020D3F8E02002F020023A613A69D3F806
:1032E000E02042F01002C3F8E020D3F8E02002F022
:1032F00010027A617A69D3F8E02042F00202C3F842
:10330000E020D3F8E030F86103F002033984BB61B8
:10331000174B7B60BB697B6853F8040F7B6001F03F
:103320001BFC7B680546186801F01EFC16F8013B83
:10333000786207F124012846C7F830807B63C7E92B
:103340000A9403F0B1FB5645E5D100225C201146FA
:1033500002F02EFB5C2002F069FB3C37DD46BD46E7
:10336000BDE8F08F00500052004402580A0A0909D3
:103370002C140024114B02689A4200D07047104A66
:1033800070B5D2F8D4300F4C23F4804304F1180602
:10339000C2F8D43054F8040F01F0DEFB0546206873
:1033A00001F0E2FB0146284603F0BEFCB442F1D135
:1033B0005C20BDE8704002F047BB00BF00500052E7
:1033C000004402582C140024014805F00BBE00BF35
:1033D000E0130024084B1A1D981D03F1080110B4D6
:1033E0009C1C9A6603F10A02C3E91834C3E91B0165
:1033F0005DF8044B5A677047D013002438B5036852
:1034000071B9026A00F1280500F5AC74012A0CBFFD
:10341000002140218BBB1D4B5722C0F858310DE0D5
:10342000426A00F1C00500F5E874012A0CBF0021D2
:103430004021EBB1164B5A22C0F8D0310023204670
:10344000C4E901214FF480524FF4806163626261EC
:103450004FF48042C4E903314FF48073C4E906237A
:103460004FF40033236202F055FC58B1FFBEFEE773
:10347000084B5822C0F8D031E0E7074B5922C0F87A
:103480005831DBE7C5E92044A56338BD1000024090
:103490007000024028000240580002402DE9F0432D
:1034A000821D05468BB0031D05F10A010830CDE9E8
:1034B000052305F10C02AB69CDE907010992002B48
:1034C0003DD0EB69B3FA83F84FEA58180123022282
:1034D00005AE0AAF4FF006090393CDE9012356F874
:1034E000044B2B792278934216D02B68F3B1012B31
:1034F00002D1F2B10A230493204601F035FB0346C2
:103500002046009301F028FB694603F0CDFABE4245
:10351000E5D10BB0BDE8F083697963789942E4D1D5
:10352000B8F1000FF3D02B68002BE0D1CDF810904C
:10353000E2E76378022B14BF0A230823DBE74FF08E
:103540000108C3E7534A0368934230B505468BB080
:1035500055D02032934252D04F4A934204D0203269
:10356000934201D00BB030BD4C4C4D48D4F8E03004
:1035700043F00103C4F8E030D4F8E03003F0010375
:103580000593059BD4F8E03043F00803C4F8E0301D
:10359000D4F8E03003F008030693069BD4F8E0303B
:1035A00043F04003C4F8E030D4F8E03003F04003C7
:1035B0000793079BD4F8F03043F40003C4F8F030CD
:1035C000D4F8F03003F400030893089BFFF766FF7C
:1035D000D4F8D830296843F001032F4A3048C4F8A2
:1035E000D830891AD4F8D83018BF012103F001036C
:1035F0000993099B0BB0BDE83040FFF7FFBE274C95
:103600002848D4F8E03043F00103C4F8E030D4F89F
:10361000E03003F001030093009BD4F8E03043F066
:103620001003C4F8E030D4F8E03003F01003019345
:10363000019BD4F8E03043F04003C4F8E030D4F804
:10364000E03003F040030293029BD4F8F03043F4DF
:103650008003C4F8F030D4F8F03003F4800303930F
:10366000039BFFF71BFFD4F8D830296843F0010310
:10367000084A0C48C4F8D830891AD4F8D83018BF92
:10368000012103F001030493049B0BB0BDE830401B
:10369000FFF7B4BE04580140045C014000440258E6
:1036A000A416002448140024014802F0ABBE00BF59
:1036B000A0150024014802F0A5BE00BF1816002482
:1036C000014802F09FBE00BFFC170024014802F031
:1036D00099BE00BF741800242DE9F04F0C684FF418
:1036E0001776754F87B004FB06F6012C07EB060A28
:1036F000C0F800A000F3A0800D468E464FF00008F1
:10370000D44669A3D3E9002369A1D1E90001CDE939
:10371000022306ABCAF8508203EB8403CDE904010F
:1037200053F810BC53F8083CCAE992880193BEE8EC
:103730000F00ACE80F00BEE80F00ACE80F00019BE3
:103740009EE80300CAF828B0CAF8C0308CE803002D
:103750002B69042B0CD8DFE803F0737D87910300FD
:103760004FF41773554A03FB04739A64C3F8E020BF
:10377000AA692B6A002A43D0002B4FF4177308BFA5
:10378000022203FB047318BF0322DA6201221A63C8
:10379000EA696B6A002A40D1191E4FF4177318BFEB
:1037A000012103FB0473C3E931126B69022B05D8B5
:1037B000434A12F80380434A52F823904FF4177398
:1037C00006F128004246494603FB047400233844AE
:1037D00063646363E365C4F8DC30C4F8CC30C4F8D8
:1037E000F430C4E90F33C4E91533C4E93533C4E90F
:1037F0003B33022307F098FC002849D0FFBEFEE7C8
:10380000191E4FF4177318BF012103FB0473C3E99A
:103810000B12EA696B6A002ABED0002B4FF41773B3
:1038200008BF022203FB047318BF0322C3F8C4209D
:103830000122C3F8C820B8E7012007B0BDE8F08F27
:103840004FF417734FF4FA5203FB04739A64C3F8EE
:10385000E0208DE74FF417734FF47A5203FB0473A3
:103860009A64C3F8E02083E74FF417734FF4FA42E9
:1038700003FB04739A64C3F8E02079E74FF41773ED
:103880004BF6803203FB04739A64C3F8E0206FE7C1
:1038900006F1C000022342464946384407F044FC82
:1038A0000028CAD0FFBEFEE704580140045C014076
:1038B00024580140245C0140481400240077010092
:1038C000CC480108D04801080068704703681B69AC
:1038D000042B05D8044A02EB830393ED000A7047DA
:1038E0009FED020A704700BFDC48010800803B479B
:1038F000714A036811698B4200B587B04BD0916E55
:103900008B4200F0B680D2F8C0108B4200F0B3803A
:10391000D2F818118B4200F0B080B3F1804F1ED066
:10392000664A93420DD0664A934200F0A880654AE9
:10393000934200F0B280644A93421ED007B05DF813
:1039400004FB624BD3F8E82042F00202C3F8E820FF
:10395000D3F8E83003F002030293029BEEE75B4BDF
:10396000D3F8E82042F00102C3F8E820D3F8E830A9
:1039700003F001030193019BE0E7544BD3F8E820E7
:1039800042F01002C3F8E820D3F8E83003F0100347
:103990000593059BD2E700205821B3F1804F01FB2E
:1039A0000022127B1ED045498B4235D044498B42C0
:1039B00048D044498B42BED1444BD3F8E81041F083
:1039C0000801C3F8E810D3F8E83003F008030493C3
:1039D000049B002AB2D0322000220F2101F0E8FF20
:1039E000322014E0394BD3F8E81041F00101C3F85C
:1039F000E810D3F8E83003F001030193019B002A9B
:103A00009CD01C2000220F2101F0D2FF1C2007B007
:103A10005DF804EB02F00AB82C4BD3F8E81041F043
:103A20000201C3F8E810D3F8E83003F00203029370
:103A3000029B002A82D01D2000220F2101F0B8FF36
:103A40001D20E4E7214BD3F8E81041F00401C3F84E
:103A5000E810D3F8E83003F004030393039B002A33
:103A60003FF46CAF1E2000220F2101F0A1FF1E20A9
:103A7000CDE7012090E702208EE703208CE7134B6F
:103A8000D3F8E82042F00402C3F8E820D3F8E83085
:103A900003F004030393039B50E70C4BD3F8E82097
:103AA00042F00802C3F8E820D3F8E83003F0080336
:103AB0000493049B42E700BF001900240004004067
:103AC00000080040000C0040001000400044025874
:103AD0000F4B026819698A420BD0996E8A4211D045
:103AE000D3F8C0108A420FD0D3F818118A420DD0F3
:103AF00070470021582202FB01331A6D002AF7D0CB
:103B0000586D10470121F5E70221F3E70321F1E7A2
:103B100000190024014807F0BBBD00BF10190024A4
:103B2000014807F0B5BD00BF68190024014807F03F
:103B3000AFBD00BFC0190024014807F0A9BD00BFF8
:103B4000181A0024F0B54FF0580C0F682E4D8DB0A8
:103B50000CFB07FC032F05EB0C06066047DC0B464D
:103B60000868344649689A6807C41B7B237004AC14
:103B70007268264B002A4FF00002726118BF1022B3
:103B8000B2610FCB84E80F000CAB03EB870353F853
:103B9000203CB3F1804F336124D01D4A934221D0A1
:103BA00030890CF1100458230021802203FB0753B5
:103BB0002C44C3E907019A62204607F0D3FB034671
:103BC00000B1FEE74FF4805208A920460993019303
:103BD0000892CDE90A33CDE9023307F093FC03469E
:103BE00040B1FEE7582303FB07539868D9E701204B
:103BF0000DB0F0BD01A920460193039307F000FE2C
:103C00000028F5D0FEE700BF00190024F84701089E
:103C1000000C0040006808B5037B10302BB107F0A2
:103C20005BFC003818BF012008BD07F03BFC0038E2
:103C300018BF012008BD00BF034600201B681B6998
:103C40009962704711B10368C3E91412704700BF4D
:103C50000C4B00224FF0FF311A739960196683F8FC
:103C60006420C3F8B81083F8BC20C3F8101183F89F
:103C70001421C3E90022C3E91622C3E92C22C3E9B7
:103C80004222704700190024704700BF08B501F0B8
:103C900073F8BDE8084001F053BF00BF064808B5FF
:103CA00003680BB103F012F9044803681BB1BDE8C7
:103CB000084004F0B9B808BD80440024783E0024D0
:103CC000064808B503680BB103F000F9044803681F
:103CD0001BB1BDE8084004F0A7B808BD804400242B
:103CE000783E0024064808B503680BB103F0EEF8EF
:103CF000044803681BB1BDE8084004F095B808BD4E
:103D000080440024783E0024364BDA6A520062D5A3
:103D10009A6A9A6A9A6A9B6A180600D500BE314B65
:103D20009B6A990600D500BE2E4B9B6ADA0600D529
:103D300000BE2C4B9B6A1B0700D500BE294B9B6A1B
:103D4000980700D500BE274B9B6AD90700D500BE57
:103D5000244B9B6A1A0400D500BE224B9B6A9B042D
:103D600000D500BE1F4B9B6AD80400D500BE1D4B7A
:103D70009B6A190500D500BE1A4B9B6A5A0500D5EF
:103D800000BE184B9B6A9B0500D500BE154B9B6A75
:103D9000D80500D500BE134B9B6A990100D500BE23
:103DA000104B9B6ADA0100D500BE0E4B9B6A1B03C9
:103DB00000D500BE0B4B9B6A580300D500BE094BD3
:103DC0009B6A990300D500BE064B9B6ADA0306D4B2
:103DD00000BE00BEFEE7DB6A9B07FAD5F8E700BE2F
:103DE000F6E700BF00ED00E000F0D8BF0A4B9B688B
:103DF00003F17843B3F5003F0BD3084B986848B103
:103E00009868012806D09868022803D09B68032090
:103E100070470120704700BF00ED00E000008038CF
:103E20002DE9F041CEB004464C2200210AA80DF045
:103E300013FE2022002102A80DF00EFEBC2200215C
:103E40001EA80DF009FE022004F0EAFC2368012BF5
:103E50004FF0000354D0534A02250193C820D16A81
:103E6000514B21F00101D162D26A02F001020192AC
:103E70009A6942F440429A619B6903F4404301937A
:103E8000019B494A93699B04FCD5484902240022BE
:103E900001268B6A04274FF0080823F0030323430D
:103EA0008B62052316900AA818934FF4803310965E
:103EB000179419941597CDF86880CDE91B2221221B
:103EC000CDE91344CDE90A2305F094F900B1FEE7EA
:103ED0003F220323294602A8CDE90223002208231A
:103EE000CDE9042340224023CDE9062340234FF4AB
:103EF0008062CDE9082305F0ABFC0346B8B1FEE7CC
:103F0000294A04250093F0209169264B41F4404151
:103F10009161926902F440420092DA6A42F0010231
:103F2000DA62DB6A03F001030093009BA9E7202219
:103F30004FF4805125934FF440152B9280222D93FE
:103F40001EA83093269135914FF4807124923492BB
:103F50000C223394439140F2271120921022CDF885
:103F600084802A971F96CDE92E34CDE93B334FF458
:103F70008033CDE922463193002446930623CDE9D0
:103F80003E4527934FF48063094C2C931E94CDE952
:103F9000281205F0B9FE00B1FEE704F067FC4EB050
:103FA000BDE8F0810004005800480258004402585F
:103FB0000F130F0370B584B0012401F06FFD4FF4AF
:103FC00080764FF04052194B68460025ADF800400E
:103FD0000396CDE9012301F07FFD19224FF0404304
:103FE00068468DF8082001938DF80F40ADF80D60FC
:103FF0008DF801408DF80A5001F06EFD02230B226E
:1040000068468DF80F508DF801304FF062538DF8EF
:1040100008200193ADF80D408DF80A4001F05CFDD9
:10402000042001F049FD04B070BD00BF0E00010383
:1040300030B50D46044685B0D1E9000184E803009F
:1040400000F06AFEAB79A3B30BF0DCF8FEF786FD57
:1040500009F002FF0AF0CEFD2B798BBB6B799BB187
:10406000BFF34F8FBFF36F8F2A4B0022C3F850224C
:10407000BFF34F8FBFF36F8F5A6942F400325A611A
:10408000BFF34F8FBFF36F8F4FF0FF320023002439
:1040900000256946204802928DF80C30CDE9004594
:1040A000FFF750FD1C48FFF7B5FD09F005FB05B013
:1040B00030BD2046FFF7B4FE2046FFF77BFFC3E785
:1040C000144C0023C4F88430BFF34F8FD4F8801011
:1040D00043F6E07EC1F34E3CC1F3C9014FEA4C1CEC
:1040E0000CEA0E000B4640EA8372013BC4F86022E2
:1040F0005A1CF8D1ACF1200C1CF1200FF0D1BFF309
:104100004F8F636943F480336361BFF34F8FBFF315
:104110006F8FA3E700ED00E0601A002405F0C8BC33
:104120001C4B9B6803F17842B2F5003F25D3B3F5F1
:10413000803F20D303F16042B2F5003F1FD303F16B
:104140005C42B2F5002F1CD303F17042B2F5902F00
:1041500019D303F14842B2F5803F16D303F18042F0
:10416000B2F1806F13D303F1E043B3F5000F2CBF1E
:104170000820072070470120704700207047022068
:1041800070470320704704207047052070470620C1
:10419000704700BF00ED00E003480023034A0449D4
:1041A00003600DF0BFBB00BF601A002400000024B4
:1041B000893C000810B4204C0022204B83B0D4F876
:1041C00088101F4841F47001C4F8881019681D4C0C
:1041D00041F0010119601A61196808401A49186014
:1041E0009A61DA611A629A62DA621A635A639A63AE
:1041F000DA631A645A64186820F4802018601A661A
:10420000D3F8DC2042F06042C3F8DC20D3F8DC3085
:104210000193019B23681940B1F1005F03D20B4B5E
:104220000122C3F80821044B4FF000629A6003B0EA
:104230005DF8044B704700BF00ED00E000440258F9
:104240007FEDF6EA0010005C0000FFFF00800051E7
:10425000704700BF0020704770B50446074E0D46FA
:104260003046214608F03EFD304608F05DFD044B27
:10427000204629461B689847002070BDE0080024AE
:10428000643A002470B50446074E0D463046214678
:1042900008F028FD304608F047FD044B204629462B
:1042A0001B689847002070BD7C0B0024683A0024EE
:1042B00000220949094808B508F00AFD08490748DD
:1042C00008F010FD074B1A680AB1002008BD064A25
:1042D00000201A6008BD00BF642A0024E008002402
:1042E000641A0024643A002451420008002209495B
:1042F000094808B508F0ECFC0849074808F0F2FC4A
:10430000074B1A680AB1002008BD064A00201A604F
:1043100008BD00BF643200247C0B0024642200240A
:10432000683A00245142000820280AD0212806D1EA
:10433000094B18689A889B7908608A808B710020E5
:104340007047054B0868B1F804C08A7918600020EE
:10435000A3F804C09A7170477400002420280AD082
:10436000212806D1094B18689A889B7908608A80B1
:104370008B7100207047054B0868B1F804C08A793A
:1043800018600020A3F804C09A7170477C000024D4
:104390000020704710B5094CD4F89032D3F814328D
:1043A0000BB1012010BD0A460146204608F090FCE2
:1043B0002046BDE8104008F09DBC00BFE008002486
:1043C0004B4A036830B593428BB04FF00004CDE9FF
:1043D0000444CDE90644089404D0464A934249D0A7
:1043E0000BB030BD444D4FF4C0524448D5F8E030D6
:1043F00043F00103C5F8E030D5F8E03003F00103E5
:1044000000930223009904A9CDE904230A23089309
:1044100002F04AFB4FF40072002304A937480694C7
:10442000CDE9042302F040FBD5F8D83022462146DE
:1044300043F000636220C5F8D830D5F8D83003F0D7
:1044400000630193019B01F0B3FA622001F0EEFAE0
:1044500022462146632001F0ABFA632001F0E6FA20
:1044600022462146652001F0A3FA652001F0DEFA1C
:104470000BB030BD204D4FF4404204A9D5F8E030D8
:1044800043F00203C5F8E030D5F8E03003F0020352
:104490000293022302981A48CDE904230C230893BF
:1044A00002F002FBD5F8D830224621464A2043F0DC
:1044B0000073C5F8D830D5F8D83003F000730393F3
:1044C000039B01F075FA4A2001F0B0FA224621461A
:1044D0004B2001F06DFA4B2001F0A8FA224621464C
:1044E0004D2001F065FA4D2001F0A0FA0BB030BD6F
:1044F0000000084000000440004402580000025838
:104500000004025800F57171D0F8040408F078BC7A
:10451000C1EBC10300EB8303D0F80404D3F80822F5
:1045200008F09CBCC1EBC10300EB8303D0F804048A
:104530009A6C08F0D1BC00BFD0F8040408F070BD3C
:10454000C16810B5044619B1022900D0FEE7012167
:10455000D4F8040408F04EFDD4F80404BDE810407B
:1045600008F020BD10B50446D0F8040408F046FD5C
:104570002268D2F8003E43F00103C2F8003E236AED
:1045800023B1034A136943F00603136110BD00BF52
:1045900000ED00E0D0F8040408F03ABDD0F80404BF
:1045A00008F04EBDD0F8040408F048BDD0F804046B
:1045B00008F048BDD0F8040408F046BD70B5067890
:1045C00004461EB1012E30D0002070BD304D0923AD
:1045D000304AC5F80404C0F8985228462E612E636C
:1045E000C5E9002302230222EB600023C5E906236C
:1045F00000220023C5E9082301220123C5E90A237B
:1046000003F05AFB00B1FEE78021284604F0E8F8E9
:1046100031464022284604F0B9F88022012128467C
:1046200004F0B4F82678012ECED11B4D09221B4B85
:1046300000216A6002222B600223C5F80444284648
:10464000EB600023C4F898522961C5E906230022D3
:104650000023C5E90823C5E90C2301220023C5E98D
:104660000A2303F029FB044600B1FEE74FF4007172
:10467000284604F0B5F821468022284604F086F842
:104680004FF4BA723146284604F080F89CE700BF28
:10469000703A002400000840783E002400000440E6
:1046A000D0F8980208B503F09DFB032802D8024B0E
:1046B000185C08BD022008BD004901089446D0F8E6
:1046C00098021A4608B5634603F012FF032802D881
:1046D000024B185C08BD022008BD00BF004901085C
:1046E000D0F8980208B503F041FF032802D8024B26
:1046F000185C08BD022008BD00490108D0F89802E6
:1047000008B503F0C3FF032802D8024B185C08BDAC
:10471000022008BD00490108D0F8980208B503F04E
:10472000F9FF032802D8024B185C08BD022008BD1F
:10473000004901080A06D0F8983206D4C1EBC1013D
:1047400003EB810191F8FE01704701F07F01C1EB9D
:10475000C10103EB810191F83E007047D0F8980247
:1047600008B503F0AFFE032802D8024B185C08BD61
:10477000022008BD00490108D0F8980208B503F0EE
:104780005DFF032802D8024B185C08BD022008BD5B
:1047900000490108D0F8980208B503F01DFF03286E
:1047A00002D8024B185C08BD022008BD0049010870
:1047B000D0F8980203F038BF122301480B807047ED
:1047C000D0000024122301480B807047BC00002455
:1047D000042301480B807047E400002410B5044C0A
:1047E0000A460448214608F0AFFE204610BD00BF2F
:1047F000804200240449010810B5044C0A460448CC
:10480000214608F0A1FE204610BD00BF80420024D2
:104810001449010810B5044C0A460448214608F022
:1048200093FE204610BD00BF8042002428490108A5
:1048300010B5044C0A460448214608F085FE20467F
:1048400010BD00BF804200243449010810B5044C5B
:104850000A460448214608F077FE204610BD00BFF6
:104860008042002444490108042301480B8070471A
:10487000E400002410B5044C0A460448214608F020
:1048800063FE204610BD00BF804200240449010899
:10489000464A4FF01A0CD2F80008D2F80838A1F8AE
:1048A00000C0C31801D142487047180FB3F1204F20
:1048B000D2F804184FF0000C3D4A2CBF373030308E
:1048C00082F803C04FF0000C9070C3F3036082F8CD
:1048D00005C04FF0000C092882F807C04FF0000C0B
:1048E0008CBF3730303082F809C04FF0000C1071A7
:1048F000C3F3035082F80BC04FF0000C092882F874
:104900000DC08CBF373030309071C3F3034009289D
:104910008CBF373030301072C3F3033009288CBF9E
:10492000373030309072C3F3032009288CBF373002
:1049300030301073C3F3031003F00F0309288CBF4A
:1049400037303030092B90734FF0000094BF303374
:104950003733B1F1204FD07313744FEA11734FF016
:1049600000002CBF37333033507400209374C1F3F0
:104970000363D0740020092B50754FF000008CBFEA
:1049800037333033D0751375C1F303530848092BFF
:104990008CBF373330339375C1F30343092B94BF76
:1049A00030333733137600235376704700E0F11F1E
:1049B000E8000024464A4FF01A0CD2F80008D2F85A
:1049C0000838A1F800C0C31801D142487047180F39
:1049D000B3F1204FD2F804184FF0000C3D4A2CBF21
:1049E0003730303082F803C04FF0000C9070C3F3C2
:1049F000036082F805C04FF0000C092882F807C058
:104A00004FF0000C8CBF3730303082F809C04FF0C7
:104A1000000C1071C3F3035082F80BC04FF0000C70
:104A2000092882F80DC08CBF373030309071C3F345
:104A3000034009288CBF373030301072C3F3033085
:104A400009288CBF373030309072C3F30320092817
:104A50008CBF373030301073C3F3031003F00F03F3
:104A600009288CBF37303030092B90734FF000008D
:104A700094BF30333733B1F1204FD07313744FEA02
:104A800011734FF000002CBF3733303350740020C7
:104A90009374C1F30363D0740020092B50754FF059
:104AA00000008CBF37333033D0751375C1F3035317
:104AB0000848092B8CBF373330339375C1F3034358
:104AC000092B94BF30333733137600235376704766
:104AD00000E0F11FE800002410B5044C0A46044829
:104AE000214608F031FD204610BD00BF8042002461
:104AF0003449010810B5044C0A460448214608F020
:104B000023FD204610BD00BF804200242849010833
:104B1000D0F8C00208F08ABDD0F8C00208F09EBDEF
:104B2000D0F8C00208F0A6BD704700BFD0F8C002A0
:104B300008F08CBDD0F8C00208F08CBDD0F8D003CE
:104B400008B502F083FD032802D8024B185C08BDAB
:104B5000022008BD58490108024B027853F8220090
:104B6000704700BF7C490108024B427833F81200BD
:104B7000704700BF5C4901088CB00A2814D8DFE8F0
:104B800000F01523313F4D5B6977859306004D4B4F
:104B9000D3F8E02042F48062C3F8E020D3F8E0309C
:104BA00003F480630B930B9B0CB07047454BD3F819
:104BB000E02042F00102C3F8E020D3F8E03003F037
:104BC00001030193019BEFE73E4BD3F8E02042F055
:104BD0000202C3F8E020D3F8E03003F002030293AE
:104BE000029BE1E7374BD3F8E02042F00402C3F820
:104BF000E020D3F8E03003F004030393039BD3E7F2
:104C0000304BD3F8E02042F00802C3F8E020D3F89C
:104C1000E03003F008030493049BC5E7294BD3F865
:104C2000E02042F01002C3F8E020D3F8E03003F0B7
:104C300010030593059BB7E7224BD3F8E02042F021
:104C40002002C3F8E020D3F8E03003F020030693FD
:104C5000069BA9E71B4BD3F8E02042F04002C3F8C3
:104C6000E020D3F8E03003F040030793079B9BE775
:104C7000144BD3F8E02042F08002C3F8E020D3F8D0
:104C8000E03003F080030893089B8DE70D4BD3F8C9
:104C9000E02042F48072C3F8E020D3F8E03003F45F
:104CA00080730993099B7FE7064BD3F8E02042F419
:104CB0000072C3F8E020D3F8E03003F400730A93E5
:104CC0000A9B71E700440258704700BF0F4B1B78E6
:104CD0000BB90120704710B504464FF47A700C4AA6
:104CE000B0FBF3F31068B0FBF3F000F0C1FE0F2C43
:104CF00000D808B1012010BD002221464FF0FF303E
:104D000000F056FE034B00201C6010BD0201002481
:104D10004C0000240401002438B50320124D00F09B
:104D200035FE124C04F0F4FC114A12499369C3F3A6
:104D30000323CB5C03F01F0320FA03F30E202B6048
:104D4000926902F00F028A5C02F01F02D3402360D6
:104D5000FFF7BCFF10B10124204638BD0446FFF721
:104D6000B3FF204638BD00BF4C0000245000002493
:104D700000440258F0480108034A044B11681B78AC
:104D80000B441360704700BF444700240201002415
:104D9000014B1868704700BF4447002438B50446EB
:104DA000FFF7F6FF0546631C02D0044B1B781C443A
:104DB000FFF7EEFF431BA342FAD338BD02010024E4
:104DC000014B1868000C70470010005C704700BF72
:104DD000806B08B5FFF7FAFF08BD00BF836B5A6D03
:104DE00012F0500F5A6D10B51DD1196842F40072BF
:104DF0005A650A6812F0080FCA681BD012F4406F97
:104E00000DD1CA6894040AD45A6D22F480725A658E
:104E10005A6DD10403D45A6D42F001025A65184606
:104E2000FDF706FB10BDD2060AD4DB6CBDE81040CE
:104E3000DB6C18479007E7D01846FDF7F9FAF1E761
:104E40001846FDF799FB10BD806B08B5436D43F024
:104E500040034365836D43F004038365FDF78CFBDA
:104E600008BD00BFF0B5002283B0019290F8502039
:104E7000012A00F01C81034601201A6883F85000C3
:104E80009468640700F18A800C68C4F31305002D50
:104E900040F08F80C4F38464A0404D684FF01F0E33
:104EA000D6694FEA951C30430CF00C0CD06105F02C
:104EB0001F0002F1300584400EFA00FE5CF8050088
:104EC00020EA0E0004434CF80540906840076ED479
:104ED000956815F0080547D10C68072002F1140603
:104EE000B94F4FEAD45CC4F304540CF0040C00FA3C
:104EF00004FE886800FA04F45CF8060020EA0E005C
:104F000020434CF80600386800F07040B0F1805F34
:104F100000F0C580D068D668C70600F1E880C6F307
:104F200082064869760000FA06F60F69042F00F041
:104F3000C18002F16004086854F827C000F0F8400E
:104F40000CF0004C40EA0C00304344F82700487E47
:104F50000E69012854F8260008BF4FF0004520F0E4
:104F60000040054344F826509068C40714D4CE6826
:104F7000086806F01807954CD2F8C050FC40C0F302
:104F80001307044025EA07052C43C2F8C040904CA3
:104F9000A64246D0002816DB002003E05A6D42F0FE
:104FA00020025A65002283F8502003B0F0BD9068BB
:104FB000DAE794FAA4F5B5FA85F5C4F3846405F04C
:104FC0001F05A84069E783498A4200F0B68001F5D1
:104FD00080718A4200F0B1807F4D804CA968A4683E
:104FE00001F0E076E44304F00104002C00F0B4800A
:104FF0007B4CA04200F0FC807A4CA04200F01A8169
:10500000794CA042C8D14902C6D474498A42C3D15E
:10501000AA68002022F0E072324342F48002AA60C3
:10502000C0E7002F6AD090FAA0F4B4FA84F40134F7
:1050300004F01F04092C00F2A48090FAA0F4B4FA42
:1050400084F490FAA0F5B5FA85F50134012601350E
:10505000A40605F01F0504F0F84406FA05F52C43F4
:1050600090FAA0F0B0FA80F0304400F01F0000EB9E
:10507000400000052043C60D02F11405C0F30450A2
:10508000072406F0040604FA00F7745924EA07041A
:105090008F6807FA00F02043705108687AE7D668F5
:1050A0004869C6F38206760000FA06F63DE702205C
:1050B00003B0F0BD106E0C6800F0F840A506B0EB30
:1050C000846F30D0506E00F0F840854226D0906E4C
:1050D00000F0F84085422BD0D06E00F0F8408542B9
:1050E0007FF442AFD06E20F00040D0663CE77608F7
:1050F000486906F0080600FA06F616E7800E441C1A
:1051000004F01F06092E2DD8A406012004F0F8444F
:10511000B040044306EB46000005ABE7506E20F0BC
:1051200000405066D3E7106E20F000401066C9E7DB
:10513000906E20F000409066CEE7264C2B4D04F593
:105140008074A96854F8F86CA468344301F0E076E0
:10515000E44304F0010448E75A6D012042F02002C4
:105160005A651FE706EB4600A50601241E3805F028
:10517000F84504FA06F60005354340F00070284370
:1051800079E790FAA0F5B5FA85F590FAA0F4B4FAAB
:1051900084F4013501260134AD0604F01F0405F046
:1051A000F84506FA04F4254390FAA0F4B4FA84F41E
:1051B000344404F01F0404EB4404A4F11E00000571
:1051C00040F00070DBE700BF0010005CFFFF0F0045
:1051D0000000FF47002002400063025800600258B0
:1051E000000084CB000052C70000B8CF002302406B
:1051F00008023FF5D1AE17498A427FF4CDAE164A78
:10520000A9681268154821F0E07192093143A0FBAA
:10521000020241F400019209A96052000192019A30
:10522000002A3FF4B9AE019A013A0192019A002A8C
:10523000F9D1B1E611F080707FF4AEAE05498A4233
:105240007FF4AAAEAA6822F0E072324342F0807284
:10525000AA60A7E6006002584C000024632D3E05BA
:1052600003689A68D20701D5002070479968214ADF
:10527000114270B5044608D0636D012043F010035D
:105280006365A36D0343A36570BD99681A4A0A401C
:1052900042F001029A60FFF77BFD2368174A05463A
:1052A00093421ED002F5807293421AD0144A92683B
:1052B000114E0AE09A68324042F001029A60FFF70C
:1052C00067FD401B0228D7D823681A68D2070FD47D
:1052D0009A68D107EED5FFF75BFD401B0228F3D992
:1052E000CAE7084A9268D006E2D0074A9342DFD163
:1052F000002070BD3F000080C0FFFF7F0020024003
:105300000063025800230240002102402DE9F041D1
:105310003A4D044600680F461646A84219D0384B4D
:10532000984216D0374DAB688068420716D494F87F
:105330005020012A12D003F01F080122B8F1090FF2
:1053400084F850200DD90023012084F85030BDE8A6
:10535000F0812D4DAB6880684207E8D50220BDE89A
:10536000F08140F2212323FA08F3DB4313EA02051C
:10537000E9D12046FFF774FF002839D1626D234B35
:105380002168134043F480736365B8F1000F02D0C5
:105390001B4B994203D0636D23F480136365636DE7
:1053A00013F4805328D0A36D23F00603A365E06CAB
:1053B0003346174D3A464031C563164D0564164DC8
:1053C000C5641C2541F8405C002584F8505051F814
:1053D0003C5C45F0100541F83C5C00F059FE226849
:1053E0000E4B91680B4043F004039360BDE8F081DD
:1053F00084F85050BDE8F081A365D8E70020024052
:10540000002102400063025800230240FEF0FFFF2B
:10541000DD4D0008D14D0008494E0008C0FFFF7F58
:1054200038B503689A68910702D59B68002038BD9B
:105430009A68D20723D59A68044602F00D02012A21
:1054400008D0636D012043F010036365A36D03432F
:10545000A36538BD986803210A4A024042F002025F
:105460009A601960FFF794FC054604E0FFF790FC92
:10547000401B0228E5D823689B68DB07F6D4002090
:1054800038BD00BFC0FFFF7F38B5574A04460368E8
:10549000934226D002F58072934222D0534B9B68F0
:1054A00013F4403F22D004F0EDFA63680546B3F5EB
:1054B000003F00F08880B3F5403F70D0B3F5803FE7
:1054C00000F08180FFF77CFC41F2030398422DD865
:1054D000474B9D425DD92268936843F48073936083
:1054E00038BD444B9B6813F4403FDCD14FF400209F
:1054F00005F094FB63680546B3F5101F6DD008D81E
:10550000B3F5E01F55D01AD9B3F5001FDAD145091C
:10551000D8E7B3F5201F4AD0B3F5301FD2D1FFF73B
:105520004FFC41F20303984233D92D0A324B9D427E
:105530001DD82268936823F44073936038BDB3F597
:10554000801F06D00AD9B3F5A01F02D0B3F5C01F43
:10555000B8D19B0C5B00B5FBF3F5B3E7B3F5002FB7
:10556000F7D023F40022B2F5802FF2D0AAE7234B24
:10557000234A2B4493421ED9224B234A2B44934265
:10558000226893682BD823F4407343F4007393602C
:1055900038BD2268936823F48073936038BD850812
:1055A000FFF70EFC41F203039842BFD890E7C5090C
:1055B00088E7050986E72268936823F4407343F47B
:1055C0008073936038BD1B0CB5FBF3F5FFF7F8FB58
:1055D00041F203039842A9D87AE7850972E743F4B8
:1055E0004073936038BD00BF002002400063025842
:1055F000002D310100230240105E5F00EFA1A0FFEB
:105600000F5E5F00DF4341FF1FBCBE0030B50023CB
:1056100083B00193002800F0D080456D0446002D32
:1056200000F0BA80226893689B0003D59168714BA3
:105630000B4093609368DD0015D46F4B90686F4901
:105640001B6801406E489B0941F08051A0FB030399
:1056500091609B090193019B2BB1019B013B01933D
:10566000019B002BF9D19368D80024D4636D0125E8
:1056700043F010036365A36D2B43A365936813F098
:10568000040F636D1DD1D9061BD4636D23F48173A0
:1056900043F0020363659368DB0728D4594B9A42B1
:1056A00017D003F580739A4213D0574B9B68D907E4
:1056B0001DD4564A15E09368002513F0040F636D5E
:1056C000E1D0636D012543F010032846636503B004
:1056D00030BD4C4A4E4B92689B681343D80706D4A2
:1056E0004C4A9368616823F47C130B439360FFF783
:1056F00067FB41F20303A1689842237F52D894F8D4
:1057000015C01A04206B42EA4C3202430A43012BB3
:1057100003D1236A013B42EA4342636A23B103F4A3
:105720007873A16A0B431A4323683B49D868014048
:105730000A43DA609A6812F0040F9A681CD11207C3
:105740001AD4D868354A217D024042EA8132E16AA2
:105750000A43DA6094F83820012A3AD01A6922F014
:1057600001021A611A692046616B22F070420A43F5
:105770001A61FFF789FE2368E268012A21D01A6BBB
:1057800022F00F021A63636D284623F0030343F0EF
:105790000103636503B030BDFCF7F8FDA56584F82F
:1057A00050503FE71029AAD1617D1A0442EA4132E4
:1057B000216B0A4342F01C02A9E70125284603B0E9
:1057C00030BD196BA26921F00F01013A0A431A6337
:1057D000D9E7D4E9102118690A43114901400A4365
:1057E000A16C0A43E16B42EA014242F001021A61F4
:1057F000B8E700BFC0FFFF5F4C000024C0FFFF6F91
:10580000632D3E05002002400060025800630258EC
:10581000002102400023024003C0F0FFFCBFFFFF55
:105820001EF800FCF0B5002383B0019390F85030CF
:10583000012B40D0012304460E46154680F8503017
:10584000FFF7EEFDE8B9676D05F080421B4B06F4EB
:1058500080311B4D3B401B4F43F0020363652368BF
:105860009E68354015430D4345F000459D609A689C
:10587000002A0FDB636D23F0030343F0010363652C
:1058800003E0636D43F010036365002384F8503038
:1058900003B0F0BD019A01320192019ABA42E6D9F1
:1058A000636D0022012023F0120384F8502043F09E
:1058B00010036365ECE7022003B0F0BDFDEEFFFFCF
:1058C000C0FFFE3FFF955A55F0B490F850200E6887
:1058D000012A49D00346294A01201C6883F8500058
:1058E000944208D05A6D002142F0200283F85010F3
:1058F0005A65F0BC7047224DAA6852070AD5A268C3
:105900005A6D012042F020025A65002283F850208F
:10591000F0BC7047A06810F00400F1D1C6B1DFF808
:1059200068C04F68DCF8082022F440423A43CCF8C3
:105930000820A468AA682243D40713D48A68DCF834
:10594000081016430F4A0A401643CCF80860DCE7FB
:105950000D498A6822F440428A60A068AA6802431E
:10596000D00704D50020D0E70220F0BC70478C6837
:105970003046044A22408A60C7E700BF0020024048
:1059800000210240E0F0FFFF0023024006494FF6ED
:10599000FF0C0002054BCA6800F4E06002EA0C024A
:1059A00010430343CB60704700ED00E00000FA05B0
:1059B0001B4BDB68C3F3022300B5C3F1070E03F1F1
:1059C000040CBEF1040F28BF4FF0040EBCF1060F0B
:1059D0001AD9033B4FF0FF3C0CFA03FC22EA0C02FD
:1059E0004FF0FF3C00280CFA0EFC21EA0C0101FAF2
:1059F00003F141EA02010ADB09010A4BC9B203447F
:105A000083F800135DF804FB00221346E8E700F07A
:105A10000F000901044BC9B2034419765DF804FB79
:105A200000ED00E000E100E0FCEC00E0002807DB16
:105A300000F01F0101234009024A8B4042F8203048
:105A4000704700BF00E100E000280DDB43090122A0
:105A500000F01F000549203302FA00F041F823004E
:105A6000BFF34F8FBFF36F8F704700BF00E100E0BF
:105A7000431EB3F1807F0CD24FF0E0220020064994
:105A80004FF0F00C5361072381F823C0906113613C
:105A900070470120704700BF00ED00E0BFF35F8F4B
:105AA000044B00215A6A22F480325A62C3F89410DF
:105AB000704700BF00ED00E0064B40F00100C3F866
:105AC00094005A6A42F480325A62BFF34F8FBFF398
:105AD0006F8F704700ED00E0174A4378C2F89830A6
